:100000000C9446000C9465000C9465000C946500FB
:100010000C9465000C9465000C9465000C946500CC
:100020000C9465000C9465000C9465000C946500BC
:100030000C9465000C940C010C9465000C94650004
:100040000C9465000C9465000C9465000C9465009C
:100050000C9465000C9465000C9465000C9465008C
:100060000C9465000C9465000C9465000C9465007C
:100070000C9465000C9465000C9465000C9465006C
:100080000C9465000C9465000C94650011241FBE4F
:10009000CFEFD0E4DEBFCDBF11E0A0E0B1E0E0E201
:1000A000F4E000E00BBF02C007900D92A831B10749
:1000B000D9F721E0A8E1B1E001C01D92A132B20759
:1000C000E1F70E94D9010C940E020C940000CF932A
:1000D000DF9300D01F92CDB7DEB789837B836A831D
:1000E00089818A3031F48A819B81BC018DE00E9434
:1000F000670080EC90E0FC018081882F90E08072A6
:100100009927892BB1F386EC90E02981FC012083AB
:1001100080E090E00F900F900F90DF91CF910895C5
:10012000CF93DF9300D000D0CDB7DEB769837A8359
:100130008B839C8389819A81AB81BC8180930E01E2
:1001400090930F01A0931001B093110180910E01C3
:1001500090910F01A0911001B091110180931901AC
:1001600090931A01A0931B01B0931C0100000F9003
:100170000F900F900F90DF91CF910895CF93DF9361
:10018000CDB7DEB781E890E02BE0FC01208388E862
:1001900090E02DE730E0FC01318320838FE690E092
:1001A00022E0FC01208384E890E0FC0111821082AF
:1001B00080910E0190910F01A0911001B091110159
:1001C0008093190190931A01A0931B01B0931C0115
:1001D0008FE590E02FE530E0F90120812068FC01F7
:1001E00020830000DF91CF910895CF93DF93CDB7A7
:1001F000DEB781E890E0FC0110820000DF91CF9132
:100200000895CF93DF93CDB7DEB781E080931801D7
:100210000000DF91CF9108951F920F9200905F0030
:100220000F92112400905B000F922F933F934F93F6
:100230005F936F937F938F939F93AF93BF93EF934E
:10024000FF93CF93DF93CDB7DEB7809119019091E3
:100250001A01A0911B01B0911C010197A109B109DC
:100260008093190190931A01A0931B01B0931C0174
:100270008091190190911A01A0911B01B0911C016C
:10028000892B8A2B8B2B91F40E94010180910E0106
:1002900090910F01A0911001B0911101809319016B
:1002A00090931A01A0931B01B0931C010000DF91F1
:1002B000CF91FF91EF91BF91AF919F918F917F91DE
:1002C0006F915F914F913F912F910F9000925B0042
:1002D0000F9000925F000F901F901895CF93DF93BF
:1002E000CDB7DEB780911D0190911E01813091053F
:1002F00081F08130910530F08230910589F00397CB
:10030000B1F01CC081E090E090931E0180931D012C
:1003100015C082E090E090931E0180931D010EC0F5
:1003200083E090E090931E0180931D0107C081E05F
:1003300090E090931E0180931D01000080911D01AB
:1003400090911E0182309105A1F083309105F9F062
:10035000019709F02AC088E290E020911201FC0187
:1003600020838BE290E0209114012095FC012083F2
:100370001CC088E290E020911301FC0120838BE2F5
:1003800090E0209115012095FC0120830EC088E2A9
:1003900090E020911201FC0120838BE290E02091FB
:1003A00016012095FC01208300000000DF91CF9111
:1003B0000895CF93DF93CDB7DEB781E290E0FC01E3
:1003C000108282E290E02FEFFC01208387E290E030
:1003D0002FEFFC01208388E290E0FC0110828AE28A
:1003E00090E02FEFFC0120838BE290E0FC01108273
:1003F00061E070E080E090E00E94900010921E01A9
:1004000010921D010E94BE000E946E0100008091AA
:1004100018018823E1F310921801F6CFF894FFCF6A
:100420000000000200000000670000000000010062
:0804300000003C240204080056
:00000001FF
